:100000000C945A000C946F000C946F000C946F00C9
:100010000C946F000C946F000C946F000C946F00A4
:100020000C946F000C946F000C946F000C946F0094
:100030000C946F000C946F000C946F000C946F0084
:100040000C946F000C946F000C946F000C946F0074
:100050000C946F000C946F000C946F000C946F0064
:100060000C946F000C946F000C946F000C946F0054
:100070000C946F000C946F000C946F000C946F0044
:100080000C946F000C946F000C946F000C946F0034
:100090000C946F000C946F000C946F000C946F0024
:1000A0000C946F000C946F000C946F000C946F0014
:1000B0000C946F0011241FBECFEFD8E0DEBFCDBF80
:1000C00011E0A0E0B1E0E2E0F2E002C005900D92A4
:1000D000A031B107D9F70E94B1000C94FF000C9435
:1000E00000008AB1806F8AB984B1807F84B985B1FC
:1000F0008F6085B93C9A0895CF93DF93CDB7DEB773
:1001000060970FB6F894DEBF0FBECDBF20E1E0E0F0
:10011000F1E0DE01119601900D922A95E1F7880F2A
:10012000991F880F991F21E030E02C0F3D1F820F8F
:10013000931FFC01E60FF71F808160960FB6F894BD
:10014000DEBF0FBECDBFDF91CF91089584B5826031
:1001500084BD85B5856085BD86E487BD82E288BDA6
:1001600008950E9471000E94A600CC24C394D12C53
:100170006894AA24A2F8B12C8BB186010A2C02C083
:10018000000F111F0A94E2F7902F909589238BB9E5
:10019000C0E0D0E0750124E0E21AF10883B190E0FC
:1001A0000C2E02C0959587950A94E2F780FD10C049
:1001B000BE01C7010E947C0087BD90E001969C01B2
:1001C00012F42F5F3F4F35952795215028BD2D9A6A
:1001D0002196C430D10511F78BB1082B0BB98FEFE5
:1001E000A81AB80A28E0A216B10431F6449AAA9BCC
:1001F000FECFAA9A4498A99BFECFA99AB9CFF894AA
:02020000FFCF2E
:1002020046423E3B3734312E2B29272523211F1D01
:00000001FF
