:100000000C945A000C9477000C9477000C947700B1
:100010000C9477000C9477000C9477000C94770084
:100020000C9477000C9477000C9477000C94770074
:100030000C9477000C9477000C9477000C94770064
:100040000C9477000C9477000C9477000C94770054
:100050000C9477000C9477000C9477000C94770044
:100060000C9477000C9477000C9477000C94770034
:100070000C9477000C9477000C9477000C94770024
:100080000C9477000C9477000C9477000C94770014
:100090000C9477000C9477000C9477000C94770004
:1000A0000C9477000C9477000C9477000C947700F4
:1000B0000C94770011241FBECFEFD8E0DEBFCDBF78
:1000C00011E0A0E0B1E0E2E6F8E002C005900D9298
:1000D000A631B107D9F721E0A6E1B1E001C01D9238
:1000E000AA31B207E1F70E9412040C942F040C9479
:1000F000000085B1806285B92FEF83EC99E0215033
:1001000080409040E1F700C00000089585B1806212
:1001100085B92FEF8BE49DE1215080409040E1F7BD
:1001200000C000000895AC01109217011092160152
:1001300016C095B19F7D95B92FEF83EC99E02150C2
:1001400080409040E1F700C00000209116013091FE
:1001500017012F5F3F4F3093170120931601209115
:10016000160130911701241735071CF308950F93DA
:100170001F93CF93DF938C01EB0110921901109222
:1001800018013FC3F801E80FF91F8081813611F093
:10019000813449F40E94790081E090E00E9493004C
:1001A0000E94860021C3823611F08234A9F40E9495
:1001B000860081E090E00E9493000E94790081E037
:1001C00090E00E9493000E94790081E090E00E94FC
:1001D00093000E94790008C3833611F08334A9F498
:1001E0000E94860081E090E00E9493000E947900C6
:1001F00081E090E00E9493000E94860081E090E000
:100200000E9493000E947900EFC2843611F084347A
:1002100079F40E94860081E090E00E9493000E94A1
:10022000790081E090E00E9493000E947900DCC296
:10023000853611F0853419F40E947900D5C28636CE
:1002400011F08634A9F40E94790081E090E00E94C8
:1002500093000E94790081E090E00E9493000E9448
:10026000860081E090E00E9493000E947900BCC269
:10027000873611F0873479F40E94860081E090E09F
:100280000E9493000E94860081E090E00E9493000B
:100290000E947900A9C2883611F08834A9F40E941E
:1002A000790081E090E00E9493000E94790081E053
:1002B00090E00E9493000E94790081E090E00E940B
:1002C00093000E94790090C2893611F0893449F474
:1002D0000E94790081E090E00E9493000E947900E2
:1002E00083C28A3611F08A34A9F40E94790081E031
:1002F00090E00E9493000E94860081E090E00E94BE
:1003000093000E94860081E090E00E9493000E948A
:1003100086006AC28B3611F08B3479F40E94860015
:1003200081E090E00E9493000E94790081E090E0DB
:100330000E9493000E94860057C28C3611F08C34C4
:10034000A9F40E94790081E090E00E9493000E944D
:10035000860081E090E00E9493000E94790081E095
:1003600090E00E9493000E9479003EC28D3611F009
:100370008D3449F40E94860081E090E00E94930051
:100380000E94860031C28E3611F08E3449F40E94EC
:10039000860081E090E00E9493000E94790024C2D0
:1003A0008F3611F08F3479F40E94860081E090E05E
:1003B0000E9493000E94860081E090E00E949300DA
:1003C0000E94860011C2803711F08035A9F40E9486
:1003D000790081E090E00E9493000E94860081E015
:1003E00090E00E9493000E94860081E090E00E94CD
:1003F00093000E947900F8C1813711F08135A9F48A
:100400000E94860081E090E00E9493000E94860096
:1004100081E090E00E9493000E94790081E090E0EA
:100420000E9493000E948600DFC1823711F082355E
:1004300079F40E94790081E090E00E9493000E948C
:10044000860081E090E00E9493000E947900CCC178
:10045000833711F0833579F40E94790081E090E0D0
:100460000E9493000E94790081E090E00E94930036
:100470000E947900B9C1843711F0843519F40E94C3
:100480008600B2C1853711F0853579F40E94790074
:1004900081E090E00E9493000E94790081E090E06A
:1004A0000E9493000E9486009FC1863711F0863516
:1004B000A9F40E94790081E090E00E9493000E94DC
:1004C000790081E090E00E9493000E94790081E031
:1004D00090E00E9493000E94860086C1873711F049
:1004E000873579F40E94790081E090E00E949300C2
:1004F0000E94860081E090E00E9493000E948600A6
:1005000073C1883711F08835A9F40E94860081E014
:1005100090E00E9493000E94790081E090E00E94A8
:1005200093000E94790081E090E00E9493000E9475
:1005300086005AC1893711F08935A9F40E948600D6
:1005400081E090E00E9493000E94790081E090E0B9
:100550000E9493000E94860081E090E00E94930038
:100560000E94860041C18A3711F08A35A9F40E94A1
:10057000860081E090E00E9493000E94860081E066
:1005800090E00E9493000E94790081E090E00E9438
:1005900093000E94790028C18133D9F40E94790028
:1005A00081E090E00E9493000E94860081E090E04C
:1005B0000E9493000E94860081E090E00E949300D8
:1005C0000E94860081E090E00E9493000E948600D5
:1005D0000BC18233D9F40E94790081E090E00E943F
:1005E00093000E94790081E090E00E9493000E94B5
:1005F000860081E090E00E9493000E94860081E0E6
:1006000090E00E9493000E948600EEC08333D9F4EC
:100610000E94790081E090E00E9493000E9479009E
:1006200081E090E00E9493000E94790081E090E0D8
:100630000E9493000E94860081E090E00E94930057
:100640000E948600D1C08433D9F40E94790081E0F1
:1006500090E00E9493000E94790081E090E00E9467
:1006600093000E94790081E090E00E9493000E9434
:10067000790081E090E00E9493000E948600B4C05F
:100680008533D9F40E94790081E090E00E949300C4
:100690000E94790081E090E00E9493000E9479001E
:1006A00081E090E00E9493000E94790081E090E058
:1006B0000E9493000E94790097C08633D9F40E946B
:1006C000860081E090E00E9493000E94790081E022
:1006D00090E00E9493000E94790081E090E00E94E7
:1006E00093000E94790081E090E00E9493000E94B4
:1006F00079007AC08733D9F40E94860081E090E0C7
:100700000E9493000E94860081E090E00E94930086
:100710000E94790081E090E00E9493000E9479009D
:1007200081E090E00E9493000E9479005DC08833D0
:10073000D9F40E94860081E090E00E9493000E941C
:10074000860081E090E00E9493000E94860081E094
:1007500090E00E9493000E94790081E090E00E9466
:1007600093000E94790040C08933D9F40E9486002A
:1007700081E090E00E9493000E94860081E090E07A
:100780000E9493000E94860081E090E00E94930006
:100790000E94860081E090E00E9493000E94790010
:1007A00023C08033D9F40E94860081E090E00E944B
:1007B00093000E94860081E090E00E9493000E94D6
:1007C000860081E090E00E9493000E94860081E014
:1007D00090E00E9493000E94860006C0803221F4BF
:1007E00084E090E00E94930083E090E00E949300F8
:1007F00080911801909119010196909319018093AD
:10080000180180911801909119018C179D070CF423
:10081000B9CC84E190E00E949300DF91CF911F91C9
:100820000F910895CF93DF93CDB7DEB766970FB6DC
:10083000F894DEBF0FBECDBF84B1806284B986E17B
:10084000E0E0F1E0DE01119601900D928A95E1F76A
:1008500066E170E0CE0101960E94B700F9CFF894EE
:02086000FFCFC8
:100862004C61697468204F72616861203832383493
:060872003430323935007C
:00000001FF
