S00C00006C6162322E73726563B7
S11300000C945A000C946F000C946F000C946F00C5
S11300100C946F000C946F000C946F000C946F00A0
S11300200C946F000C946F000C946F000C946F0090
S11300300C946F000C946F000C946F000C946F0080
S11300400C946F000C946F000C946F000C946F0070
S11300500C946F000C946F000C946F000C946F0060
S11300600C946F000C946F000C946F000C946F0050
S11300700C946F000C946F000C946F000C946F0040
S11300800C946F000C946F000C946F000C946F0030
S11300900C946F000C946F000C946F000C946F0020
S11300A00C946F000C946F000C946F000C946F0010
S11300B00C946F0011241FBECFEFD8E0DEBFCDBF7C
S11300C011E0A0E0B1E0EAE6F1E002C005900D9293
S11300D0AC30B107D9F70E947F000C94B3000C94A4
S11300E00000E5ECF0E080811082108287E68093C6
S11300F0C400E1ECF0E08081886080830895CF93B0
S1130100DF93CDB7DEB72C970FB6F894DEBF0FBEE2
S1130110CDBF0E9471008CE0E0E0F1E0DE011196B9
S113012001900D928A95E1F7AE01435F5F4FE0ECD9
S1130130F0E026EC30E0BE016F5F7F4F808185FFE9
S1130140FDCFDB018D91BD01D9018C936417750737
S1130150A9F7BFEF69E688E1B15060408040E1F75C
S10D016000C00000E8CFF894FFCFC0
S10F016A3832383434303239350A0D0094
S9030000FC
