S00D00006C616220362E7372656392
S11300000C945A000C9477000C9477000C947700AD
S11300100C9477000C9477000C9477000C941D01D9
S11300200C9477000C9477000C9477000C94770070
S11300300C9477000C9477000C9412010C94070133
S11300400C9477000C9477000C9477000C94770050
S11300500C9477000C9477000C9477000C94770040
S11300600C9477000C9477000C9477000C94770030
S11300700C9477000C9477000C9477000C94770020
S11300800C9477000C9477000C9477000C94770010
S11300900C9477000C9477000C9477000C94770000
S11300A00C9477000C9477000C9477000C947700F0
S11300B00C94770011241FBECFEFD8E0DEBFCDBF74
S11300C011E0A0E0B1E0E0E6F2E002C005900D929C
S11300D0A031B107D9F721E0A0E1B1E001C01D9240
S11300E0A131B207E1F70E94F7000C942E010C94A1
S11300F000008AB1806F8AB984B1807F84B985B1E8
S11301008F6085B93C9A259A08950F931F93CF93D6
S1130110DF93CDB7DEB760970FB6F894DEBF0FBE9E
S1130120CDBF80E1E0E0F1E0DE01119601900D9297
S11301308A95E1F7DE01119664E070E001E010E0D9
S11301408BB1A801062E02C0440F551F0A94E2F792
S1130150942F909589238BB9FD0120E030E083B181
S113016090E0022E02C0959587950A94E2F780FDEF
S113017003C08081815088BD2F5F3F4F319624306A
S1130180310569F78BB1482B4BB96F5F7F4F1496DC
S113019068307105A9F660960FB6F894DEBF0FBEFD
S11301A0CDBFDF91CF911F910F91089584B58260E7
S11301B084BD8BEB87BDEEE6F0E0808186608083B2
S11301C085B5846085BD0895E0EBF0E080818260B0
S11301D0808381ED8093B300E0E7F0E0808182606A
S11301E08083E1EBF0E080818560808308950E9444
S11301F079000E94D6000E94E40078948091100156
S11302008823E1F30E94850010921001F7CF1F921A
S11302100F920FB60F9211242D980F900FBE0F90CE
S11302201F9018951F920F920FB60F9211242D9ABA
S11302300F900FBE0F901F9018951F920F920FB63C
S11302400F9211248F93809110018F5F809310017E
S11302508F910F900FBE0F901F901895F894FFCFB9
S1130260152A3F3F54697E7E93A8BDBDBDBDBDBD6B
S9030000FC
