:100000000C945A000C946F000C946F000C946F00C9
:100010000C946F000C946F000C946F000C946F00A4
:100020000C946F000C946F000C946F000C946F0094
:100030000C946F000C946F000C946F000C946F0084
:100040000C946F000C946F000C946F000C946F0074
:100050000C946F000C946F000C946F000C946F0064
:100060000C946F000C946F000C946F000C946F0054
:100070000C946F000C946F000C946F000C946F0044
:100080000C946F000C946F000C946F000C946F0034
:100090000C946F000C946F000C946F000C946F0024
:1000A0000C946F000C946F000C946F000C946F0014
:1000B0000C946F0011241FBECFEFD8E0DEBFCDBF80
:1000C00011E0A0E0B1E0E6EAF1E002C005900D9297
:1000D000A031B107D9F70E9478000C94D1000C949C
:1000E00000009091C00095FFFCCF8093C60008955A
:1000F000CF93DF93CDB7DEB760970FB6F894DEBF2E
:100100000FBECDBF80E1E0E0F1E0DE01119601908D
:100110000D928A95E1F788248394912CCE01019663
:100120005C0184E0E82EF12C8BB164010E2C01C03F
:10013000CC0C0A94EAF79C2D909589238BB900E0AA
:1001400010E083B190E0002E02C0959587950A9447
:10015000E2F780FD06C0F501E00FF11F80810E94EB
:1001600071009401002E02C0220F331F0A94E2F79F
:1001700083B190E082239323892BD1F30F5F1F4F2C
:1001800004301105F1F68BB1C82ACBB89FEFE91AFC
:10019000F90A84E0A80EB11C98E0E916F10421F6F2
:0601A000BDCFF894FFCF73
:1001A6003132334134353642373839432A302344E5
:00000001FF
