S00C00006C6162302E73726563B9
S11300000C945A000C9464000C9464000C946400E6
S11300100C9464000C9464000C9464000C946400CC
S11300200C9464000C9464000C9464000C946400BC
S11300300C9464000C9464000C9464000C946400AC
S11300400C9464000C9464000C9464000C9464009C
S11300500C9464000C9464000C9464000C9464008C
S11300600C9464000C9464000C9464000C9464007C
S11300700C9464000C9464000C9464000C9464006C
S11300800C9464000C9464000C9464000C9464005C
S11300900C9464000C9464000C9464000C9464004C
S11300A00C9464000C9464000C9464000C9464003C
S11300B00C94640011241FBECFEFD8E0DEBFCDBF87
S11300C00E9466000C9482000C94000084B180624B
S11300D084B985B1806285B92FEF83ED90E3215017
S11300E080409040E1F700C0000085B18F7D85B964
S11300F02FEF83ED90E3215080409040E1F700C062
S10B01000000E7CFF894FFCFE3
S9030000FC
