S00D00006C616220342E7372656394
S11300000C945A000C9464000C9464000C946400E6
S11300100C9464000C9464000C9464000C946400CC
S11300200C9464000C9464000C9464000C946400BC
S11300300C9464000C9464000C9464000C946400AC
S11300400C9464000C9464000C9464000C9464009C
S11300500C9464000C9464000C9464000C9464008C
S11300600C9464000C9464000C9464000C9464007C
S11300700C9464000C9464000C9464000C9464006C
S11300800C9464000C9464000C9464000C9464005C
S11300900C9464000C9464000C9464000C9464004C
S11300A00C9464000C9464000C9464000C9464003C
S11300B00C94640011241FBECFEFD8E0DEBFCDBF87
S11300C00E9473000C94C1000C94000085B58460F8
S11300D085BD85B5816085BD84B5826084BD8CE9AC
S11300E087BD18BC089584B18F7784B984B18062C8
S11300F084B985B18F7785B90E9466001F992AC09B
S113010028B530E087B590E00197281739075CF4EB
S113011088B58F5F88BD85B1806285B9AA9BFECF03
S113012085B3846085BB28B530E087B590E001973E
S11301302817390731F485B1806285B91F9BFECF3A
S1130140DDCF85B18F7D85B9A99BFECF85B3826054
S113015085BBD4CF88B5882389F288B5815088BD02
S113016085B1806285B9AA9BFECF85B3846085BBC7
S113017085B18F7D85B9A99BFECF85B3826085BB90
S1090180BDCFF894FFCF8F
S9030000FC
