:100000000C945A000C946F000C946F000C946F00C9
:100010000C946F000C946F000C946F000C946F00A4
:100020000C946F000C946F000C946F000C946F0094
:100030000C946F000C946F000C946F000C946F0084
:100040000C946F000C946F000C946F000C946F0074
:100050000C946F000C946F000C946F000C946F0064
:100060000C946F000C946F000C946F000C946F0054
:100070000C946F000C946F000C946F000C946F0044
:100080000C946F000C946F000C946F000C946F0034
:100090000C946F000C946F000C946F000C946F0024
:1000A0000C946F000C946F000C946F000C946F0014
:1000B0000C946F0011241FBECFEFD8E0DEBFCDBF80
:1000C00011E0A0E0B1E0ECEFF1E002C005900D928C
:1000D000A031B107D9F70E9499000C94FC000C9450
:1000E0000000E5ECF0E080811082108287E68093CA
:1000F000C400E1ECF0E0808188608083E2ECF0E015
:100100008081866080838081808380818083089560
:100110009091C00095FFFCCF8093C60008958AB1EE
:10012000806F8AB984B1807F84B985B18F6085B9C9
:100130000895CF93DF93CDB7DEB760970FB6F894ED
:10014000DEBF0FBECDBF0E948F000E94710080E114
:10015000E0E0F1E0DE01119601900D928A95E1F761
:100160006894CC24C2F8D12C41C08BB121E030E09E
:1001700079010C2C02C0EE0CFF1C0A94E2F79E2DB4
:10018000909589238BB900E010E027C083B190E0FF
:10019000002E02C0959587950A94E2F780FD1BC05A
:1001A000F6013497EE0FFF1FEE0FFF1F81E090E086
:1001B0008C0F9D1FE80FF91FE00FF11F80810E9437
:1001C000880083B190E0002E02C0959587950A942F
:1001D000E2F780FFF6CF0F5F1F4F04301105B4F236
:1001E0008BB1E82AEBB89FEFC91AD90A88E0C81684
:0C01F000D1040CF4BACFB4CFF894FFCFC8
:1001FC004423302A4339383742363534413332318F
:00000001FF
